:1000000022C046C013C744C043C0C6C641C040C09A
:100010003FC03EC03DC03CC03BC03AC039C00000FC
:10002000000037000000000038000102000004005A
:10003000000000003600020202020202010204086F
:100040001020C50A320B11241FBECFE5D2E0DEBF5F
:10005000CDBF21E0A4ECB0E001C01D92AE34B207E8
:10006000E1F710E0A0E6B0E0EAE8FFE102C00590A9
:100070000D92A43CB107D9F710E0C2E2D0E003C072
:100080002197FE0152DDC132D107D1F747D771CF99
:10009000B7CFFC011182108284E0369A3699FECFE8
:1000A00094B125B1322F292F40815181240F351F62
:1000B00031832083815089F736952795369527958A
:1000C000318320830895CF92DF92EF92FF920F93B6
:1000D0001F93CF93DF936C01EB017B01E40EF51EC0
:1000E00010E000E0CE15DF0561F06991D601ED91D9
:1000F000FC910190F081E02DC6010995080F191FB0
:10010000F1CFC801DF91CF911F910F91FF90EF9038
:10011000DF90CF90089590E0FC01E65DFF4F3491B1
:10012000FC01E45CFF4F2491FC01EA5CFF4FE49189
:10013000EE23B9F0332329F03130A1F48AB58F775B
:100140008ABDF0E0EE0FFF1FEC5DFF4FA591B4916B
:100150008FB7611118C0F894EC9120952E232C9341
:100160008FBF0895323019F48AB58F7DE9CF3330CF
:1001700021F480B78F7D80BFE4CF343011F78CB588
:100180008F7D8CBDDECFF894EC912E2BE8CFCF93F2
:10019000DF9390E0FC01E45CFF4F24918A5C9F4F69
:1001A000FC0184918823C9F090E0880F991FFC011D
:1001B000E25EFF4FA591B491FC01EC5DFF4FC5914C
:1001C000D49161110DC09FB7F8948C912095822332
:1001D0008C938881282328839FBFDF91CF91089536
:1001E000623051F49FB7F8943C91822F809583231D
:1001F0008C93E8812E2BEFCF8FB7F894EC912E2BB8
:100200002C938FBFEACF1F93CF93DF93182FEB016F
:1002100061E0BDDF209731F460E0812FDF91CF9165
:100220001F9179CFCF3FD10511F461E0F6CFE12FD7
:10023000F0E0E65DFF4FE491E13041F48AB580687B
:100240008ABDC9BDDF91CF911F910895E23029F495
:100250008AB580628ABDC8BDF5CFE33029F480B786
:10026000806280BFCEBDEECFE43029F48CB58062D1
:100270008CBDCBBDE7CFC038D105BCF6CDCF3FB7E5
:10028000F8948091120190911301A0911401B09102
:10029000150122B708B601FE05C02F3F19F00196DF
:1002A000A11DB11D3FBFBA2FA92F982F8827BC01D0
:1002B000CD01620F711D811D911D43E0660F771FF7
:1002C000881F991F4A95D1F70895CF92DF92EF9238
:1002D000FF92CF93DF936B017C01D1DFEB01CFDF86
:1002E0006C1B7D0B683E7340A0F0C114D104E10487
:1002F000F10439F4DF91CF91FF90EF90DF90CF9030
:10030000089581E0C81AD108E108F108C851DC4F0E
:10031000E6CFC114D104E104F10409F7EBCF209139
:100320001801309119012817390781F490911601AD
:1003300080911701981751F0E0911601F0E0EF520B
:10034000FF4F8081082E000C990B08958FEF9FEFCF
:10035000089520911801309119012817390739F4AF
:100360008FB7F89410921701109216018FBF08955D
:10037000EF92FF920F931F93CF93DF93DC015C9674
:10038000ED90FC905D97E114F10479F481E090E048
:1003900013969C938E93129790E080E0DF91CF911B
:1003A0001F910F91FF90EF9008955196ED91FC9160
:1003B000529750968C915097982F90950FB75E96C4
:1003C0002C915E97122F127021FD6095F894208178
:1003D000112319F1282B2083E7012197F1F728E059
:1003E000462F50E0308160FF1AC0382B3083E70180
:1003F0002197F1F7BA0175956795215089F7112377
:1004000081F08081892380830FBF5C968D919C91C0
:100410000197F1F781E090E0C1CF2923DCCF3923A8
:10042000E5CF9081892BEFCF2091180130911901F0
:100430002817390769F4809117012091160190E07F
:10044000805C9F4F821B910960E470E05BDB089544
:1004500090E080E00895209118013091190128174B
:100460003907B9F49091160180911701981789F016
:10047000E0911601F0E0EF52FF4F808120911601CC
:1004800030E02F5F3F4F2F7333272093160190E00A
:1004900008958FEF9FEF08952FB7F894809127016B
:1004A00090912801A0912901B0912A012FBF80933A
:1004B000330190933401A0933501B09336018BE260
:1004C00091E0C9DF97FF26C02FB7F89480912701EC
:1004D00090912801A0912901B0912A012FBF40914C
:1004E0003301509134016091350170913601841BC4
:1004F000950BA60BB70B40912F01509130016091E5
:1005000031017091320184179507A607B707B8F239
:100510008FEF9FEF0895CF92DF92EF92FF920F93AC
:100520001F93CF93DF9300D0CDB7DEB71A82198225
:100530008F3809F486C08C3909F4BEC08C3009F0BC
:10054000F0C08EEC90E0A5DD0091CE001091CF00C0
:100550000115110509F4A3C0C0907200D09073007A
:10056000E0907400F090750020E030E0A901C70130
:10057000B601B0DA18160CF092C02DEC3CEC4CE849
:1005800054E4C701B60132D96B017C01B80190E097
:1005900080E0CBD89B01AC01C701B60133DA609390
:1005A0006E0070936F0080937000909371001092B2
:1005B000230110922201C0906E00D0906F00E09055
:1005C0007000F09071002AEA31EF42ED50E4C7016B
:1005D000B60180DA181634F481E090E0909323019C
:1005E0008093220124E533EE41E550E4C701B601D2
:1005F00098D887FF06C08FEF9FEF909323018093D9
:100600002201809122019091230120916C00309170
:100610006D002817390711F01092D00090936D00EB
:1006200080936C00892B81F18AEA91EFAEE9B0E406
:1006300080936E0090936F00A0937000B093710050
:1006400023C0CE01019625DD10921F0110921E01DC
:1006500089819A818238914030F081E090E09093D6
:100660001F0180931E0180911E0190911F01209116
:100670007600309177002817390711F01092D000DA
:1006800090937700809376000F900F90DF91CF9139
:100690001F910F91FF90EF90DF90CF9008958AEA1D
:1006A00091EFAEE9B0E480936E0090936F00A09359
:1006B0007000B09371007BCF8CEC90E0EADC20E01E
:1006C00030E040E450E460916E0070916F008091E2
:1006D000700090917100FED91816B4F46091CC00AE
:1006E0007091CD006115710579F088EB91E0F6D934
:1006F00090E080E01AD8609372007093730080934A
:10070000740090937500C0CF80E090E0A0E8BFE354
:100710008093720090937300A0937400B09375005F
:10072000B3CF80911D01813009F05CC08AEC90E06C
:10073000B0DC6091CA007091CB0090E080E0F5D70A
:1007400020916E0030916F004091700050917100C7
:100750004DD820E030E040E85AE348D86093680084
:100760007093690080936A0090936B00109221014E
:1007700010922001C0906800D0906900E0906A005B
:10078000F0906B002AE939E946E850E4C701B60168
:10079000A1D9181634F481E090E090932101809360
:1007A00020012EEA37E44BE150E4C701B601B9D786
:1007B00087FF06C08FEF9FEF909321018093200168
:1007C0008091200190912101209166003091670075
:1007D0002817390711F01092D0009093670080938A
:1007E000660052CF109268001092690010926A0061
:1007F00010926B00BBCF882321F0843049F470E065
:1008000002CD67FF03C061E080E085CC60E0FCCFF3
:1008100008958823C9F0813059F1809162008430B5
:1008200008F450C0109262008091C600909163005D
:10083000992349F190916100891708F110926300A2
:1008400091509093C60007C01092C60081E080933B
:1008500063001092620080916200811137C0E091C4
:10086000C600F0E0E058FF4F608180916000C3CF88
:10087000809161008093C60010926300EACF8F5F81
:100880008093C600E8CF81111BC080911D0181308B
:1008900039F08091C4009091C5008639910550F0DF
:1008A00081E0809363008093C6001092C50010928F
:1008B000C400D1CF01969093C5008093C400CBCFE4
:1008C0008150DECF8F5F80936200C5CF08950F9374
:1008D0001F93CF93DF938091C900882321F100916A
:1008E000640010916500C091C700D091C800C80194
:1008F000969587958C179D0770F081E08ADFC01769
:10090000D10758F01092C8001092C700DF91CF9124
:100910001F910F91089580E0F1CF2196D093C800E8
:10092000C093C700F3CF80911D01813029F4DF917E
:10093000CF911F910F916DCF82E0F9CFCF93C82F48
:100940008093600060936100882349F0843019F43B
:1009500060E080E050DF60E08C2FCF914CCF70E002
:1009600060E084E050DCF7CF80912001909121017C
:10097000181619066CF02091220130912301232BC7
:1009800039F420911E0130911F01121613068CF4C8
:100990006FE184E0D3DF81E08093C9001092C8004A
:1009A0001092C70089E190E0909365008093640005
:1009B0001FC01092C8001092C70022E330E03093AD
:1009C0006500209364001092C90020911D01213020
:1009D00009F52091790039EF320F6FE1323048F498
:1009E00084E0283009F080E0A9DF81E08093C9002D
:1009F0006ECF892B51F480E0A1DF809179008430A3
:100A000031F481E08093C900CDCF84E0F5CF85300B
:100A100079F7EBCF6AE1892B19F480E08FDFE8CF1B
:100A200084E0FCCFCF93DF93D091D0008CE087B9E6
:100A3000C7E8C6B962E070E080E090E046DC8CE098
:100A40006ADD8CE987B9C6B962E070E080E090E0C9
:100A50003CDC8CE960DD8FE887B9C6B962E070E004
:100A600080E090E032DC8FE856DD81E087B9C6B9DE
:100A700062E070E080E090E028DC80E04CDD809176
:100A8000D0008D1371DFD093D000DF91CF91089506
:100A9000CF93C82F1092C5001092C400109262002C
:100AA000109226011092250110921C0110921B0138
:100AB0001092C8001092C700682F85E02CDB80914F
:100AC0001D018C1729F064EF71E080E090E0FDDB00
:100AD000C0931D01CF910895CF93DF93DC0114964D
:100AE0002D913C911597232B71F0FB01CD91DC9159
:100AF00060817181CE0123DA009729F08C1B9D0B58
:100B0000DF91CF9108958FEF9FEFFACF0F931F934F
:100B1000CF93DF93EC0188819981009759F02A8166
:100B20003B812617370730F081E0DF91CF911F918D
:100B30000F9108958B016F5F7F4F22D9009759F075
:100B4000998388831B830A832C813D81232B61F742
:100B5000FC011082E9CF80E0E8CFAF92BF92CF9244
:100B6000DF92EF92FF920F931F93CF93DF93DC01FD
:100B7000CD90DC901197C114D10439F01496CD9129
:100B8000DC918C017601209761F4DF91CF911F9168
:100B90000F91FF90EF90DF90CF90BF90AF900895AE
:100BA00075015701BFEFAB1ABB0AF7018081082E10
:100BB000000C990BAED5892B99F72197CC0DDD1D33
:100BC0008881082E000C990BA4D5892B29F0CE150D
:100BD000DF0510F02197F4CFAE014F5F5F4F4E1944
:100BE0005F09D80115965C934E931497CE14DF04D9
:100BF00018F4B701C60182D9D801ED91FC91119783
:100C000014968D919C91E80FF91F1082BECFFC01C4
:100C1000808191812CC8EF92FF920F931F93CF9305
:100C2000DF93EC017B01198218821B821A821D82DC
:100C30001C82FB0101900020E9F731978F01061B10
:100C4000170BB80163DF28813981811112C021158A
:100C5000310511F0C9010BD8198218821D821C823E
:100C60001B821A82DF91CF911F910F91FF90EF901D
:100C700008951D830C83B701C901DF91CF911F91A6
:100C80000F91FF90EF9054C960EF90E080E075D62F
:100C90006091780082E090E070C690E080E065D6D8
:100CA000803F21F084EF80937800EECF82E090E0E7
:100CB0005CD68093780008950F931F93CF93DF93B2
:100CC000882309F455C0809179008930C1F588EEF8
:100CD00093E0909326018093250188E0809379002A
:100CE000C4E6D0E008EE13E0809125019091260142
:100CF000883E23E0920768F5BE01F0D6892B09F4FF
:100D000091DE809122019091230118161906E4F0DA
:100D100080911E0190911F0118161906ACF0D7DDC5
:100D20006AE070E080E090E0D0DA80912501909157
:100D3000260101969093260180932501D5CF10922C
:100D4000260110922501C9CF109326010093250199
:100D5000ECCF70E060E081E056DA80E099DE81E07F
:100D6000809379005FDEDF91CF911F910F91FCCDD1
:100D700059DE8091220190912301019799F380918E
:100D80001E0190911F01019769F381E081DE84E0EB
:100D90008093790082DFE6CF1F920F920FB60F92F9
:100DA00011242F933F938F939F93AF93BF93809181
:100DB000270190912801A0912901B0912A01309139
:100DC000110126E0230F2D3768F129E8230F039640
:100DD000A11DB11D2093110180932701909328013B
:100DE000A0932901B0932A018091120190911301DF
:100DF000A0911401B09115010196A11DB11D809320
:100E0000120190931301A0931401B0931501BF91A7
:100E1000AF919F918F913F912F910F900FBE0F90A7
:100E20001F9018950296A11DB11DD4CF1F920F924D
:100E30000FB60F9211242F933F934F935F936F93AD
:100E40007F938F939F93AF93BF93EF93FF93E09123
:100E50001801F0911901309749F0A685B78585856D
:100E6000968D91FF14C09C918923A1F4FF91EF917D
:100E7000BF91AF919F918F917F916F915F914F91B2
:100E80003F912F910F900FBE0F901F9018959C913E
:100E9000892361F7A389B4899C91858980958923E9
:100EA0008C93868997890197F1F7608D718DA6855E
:100EB000B785558538E020E0CB010197F1F7822F07
:100EC00090E095958795282F4C91452309F020684F
:100ED000315091F7868D81FD20958091170190E02A
:100EE00001968F73992730911601381799F0A091C8
:100EF0001701B0E0AF52BF4F2C9380931701828D42
:100F0000938D0197F1F7A389B4898C919589892BE9
:100F10008C93ACCF868D8160868FF1CFCF93DF939A
:100F2000CDB7DEB762970FB6F894DEBF0FBECDBF68
:100F300083E08ABD83BF789489B7826089BF80E4EB
:100F40008CBD8FEF8DBD87EC80BF86B188778668BA
:100F500086B9379A109246011092450110924401C9
:100F600010924301109242011092410185E690E0F7
:100F7000909348018093470130913701363020F536
:100F800041E250E0509342014093410143E650E07A
:100F9000509344014093430142E450E05093460192
:100FA000409345012BB720622BBF45E350E050939F
:100FB0003F0140933E0121E001C0220F3A95EAF73C
:100FC000209340010197F1F78091450190914601EE
:100FD000892B49F1E0911801F091190121E0EB32E0
:100FE000F20709F1309739F0A389B4899C9185897A
:100FF000809589238C93809149018E7F809349014C
:1010000010921701109216018BE291E09093190152
:1010100080931801E0913E01F0913F018081909111
:101020004001892B808388EC90E0A0E0B0E08093C1
:101030002F0190933001A0933101B093320162E00F
:1010400083E0A5D861E080E0A2D861E084E09FD889
:1010500061E085E09CD881E080931D0180E018DD8F
:1010600061E081E094D870E060E081E0CCD815DEEA
:10107000EFE3F0E08491E9E3F0E09491992309F43F
:1010800063C0E92FF0E0EE0FFF1FE05DFF4FA59179
:10109000B4919C91892331E020E009F430E0832F62
:1010A000922FF1E08F2781708093240120912501F8
:1010B000309126012436310508F449C0811101C060
:1010C000B1DC1092260110922501809122019091AD
:1010D0002301181619067CF08091200190912101BE
:1010E0001816190644F080911E0190911F011816E0
:1010F00019060CF0B1C180911D01813019F489E00D
:101100008093790090911A018091790098132CDCDA
:101110008091790080931A01853009F430C208F07B
:1011200025C2833009F428C2D2DB80912501909139
:101130002601019690932601809325016AE070E0D4
:1011400080E090E0C2D894CF90E080E0AACFC901BF
:101150006AE070E0C3D4892B09F0B7CF8BE291E04D
:10116000DED8019609F4B1CF62EC70E0CE010D96A5
:1011700052DD92D997FD1CC08A309105C9F0898350
:101180001A8209891A890F5F1F4FB801CE010D9687
:10119000BDDC882371F32D853E8589899A89BE013E
:1011A0006F5F7F4F820F931FC3D61A8B098BE1CFDE
:1011B0000D851E850115110569F0F80181918F01DA
:1011C000882341F0082E000C990B90D6F801319736
:1011D0008083F3CFCE010D96C0DC60EB70E0CE01D2
:1011E000019619DDBE016F5F7F4FCE010D9674DC55
:1011F0008C01CE0101960BDD17FD03C0F8E0F093E2
:10120000790065EB70E0CE01019605DDBE016F5FF0
:101210007F4FCE010D9660DC8C01CE010196F7DC8C
:1012200017FD03C023E0209379006AEB70E0CE0144
:101230000196F1DCBE016F5F7F4FCE010D964CDC55
:101240008C01CE010196E3DC17FF1EDD6FEB70E031
:10125000CE010196E0DCBE016F5F7F4FCE010D969F
:101260003BDC8C01CE010196D2DC17FD82C062EC22
:1012700070E0CE010196CFDC6FEB70E0CE010796F7
:10128000CADCA988BA88A114B10409F45AC08B84B5
:101290009C848114910409F454C0ED80FE80E81808
:1012A000F9080D851E85E114F10491F46F817885AC
:1012B000C80145D68C01009709F443C069817A8141
:1012C0004D815E811BD68D819E81080F191FEECF47
:1012D000F7FC0EC06F8078846501C801B3012FD67A
:1012E000009709F44AC0880D991DCE0CDF1CF6CF7B
:1012F00068016F817885C80122D64C010097F1F012
:101300005C01A01AB10AA501B801C601F7D5CA0C43
:10131000DB1C69817A814D815E81C601EFD58D81AB
:101320009E81C80ED91E0B851C85080D191D898943
:101330009A898E0D9F1D9A8B898BDBCFB801C601D0
:10134000F7D5CE01079663DCCE01019660DCCE01B5
:101350000D9603DC89899A89892B59F08D859E85A4
:1013600060E0009709F09AD16093780070E081E026
:101370004AD7CE010D964BDCA8CEAC14BD0409F3C0
:101380008F8598898C159D0558F4B6016F5F7F4F46
:10139000C801F6D40097A9F29E878D87D88ACF8698
:1013A00009891A890150110917FDCBCF48016B84B7
:1013B0007C846114710429F2A988BA88A114B1044B
:1013C00009F4BFCFA614B70408F4BBCF0A151B0558
:1013D00020F0450181E0881A9108CD84DE842F80B9
:1013E0003884C6010FEF1FEF2601480C591C481620
:1013F000590670F0B101A3D5009751F09C012C194A
:101400003D098216930608F4980101968901EFCFF1
:1014100017FD97CF600E711EC601860D971DA501A1
:1014200046195709BC018E0D9F1D71D589899A896E
:101430008E0D9F1D9A8B898B2D853E85820F931F64
:10144000FC0110828D859E8569817A814D815E8146
:10145000800F911F53D5A6CF8091790090912401E0
:10146000992379F1813071F480911B0190911C01D5
:1014700083369105D0F010921C0110921B01F3E00D
:10148000F093790080917900863009F03BCE80910D
:101490001B0190911C018A3221E0920760F01092AA
:1014A0001C0110921B0188E02BCE019690931C0129
:1014B00080931B01E7CF019690931C0180931B0141
:1014C00021CE843079F480911B0190911C018C32E3
:1014D000E1E09E07C8F110921C0110921B0185E00B
:1014E0008093790080917900853079F480911B0197
:1014F00090911C018C3BF2E09F0760F110921C015F
:1015000010921B0186E080937900809179008730EA
:1015100079F480911B0190911C018A3221E092079D
:10152000F8F010921C0110921B0184E08093790066
:1015300080917900813019F0863009F0E3CD109266
:101540001C0110921B01DECD019690931C0180932B
:101550001B01C8CF019690931C0180931B01D5CF2E
:10156000019690931C0180931B01E2CF885082303A
:1015700008F0DACD81E001C080E09EDBD5CD60913E
:10158000780070E081E03FD6CFCD809179008093E4
:10159000D00010922E0110922D0188EE93E0A0E071
:1015A000B0E080932F0190933001A0933101B0936C
:1015B000320184EA90E090932C0180932B011092E9
:1015C0004201109241011092440110924301109285
:1015D0004601109245011092480110924701609116
:1015E00049016E7F6D7F609349016695617081E06E
:1015F000682780E090D561E080E0C9D5ECE3F0E0B9
:10160000E491E0933B01E6E3F0E0E491F0E0EE0FDB
:10161000FF1FEC5DFF4F8591949190933D01809366
:101620003C0160E083E0B3D58091490181FD03C0B6
:1016300061E083E070D583E080933701EFE3F0E071
:10164000E491E0933801E9E3F0E0E491F0E0EE0F9B
:10165000FF1FE05DFF4F8591949190933A01809335
:101660003901089584EA90E090932C0180932B0136
:1016700080911801909119018B52914071F4E09181
:101680003E01F0913F019081809140018095892336
:101690008083109219011092180108951F93FC0184
:1016A00099278827BC01E89411911032E9F3193089
:1016B00010F01E30C8F31B3249F01D3241F468941B
:1016C00005C012D0610F711D811D911D1191105324
:1016D0001A30B8F33EF490958095709561957F4FE0
:1016E0008F4F9F4F1F910895592F482F372F262F27
:1016F000660F771F881F991F660F771F881F991F16
:10170000620F731F841F951F660F771F881F991F15
:1017100008959111D6C0803219F089508550D0F7C4
:10172000089540D008F481E00895E89409C097FB3B
:101730003EF490958095709561957F4F8F4F9F4FA8
:101740009923A9F0F92F96E9BB279395F6958795EC
:1017500077956795B795F111F8CFFAF4BB0F11F4AF
:1017600060FF1BC06F5F7F4F8F4F9F4F16C0882356
:1017700011F096E911C0772321F09EE8872F762F8C
:1017800005C0662371F096E8862F70E060E02AF0CD
:101790009A95660F771F881FDAF7880F96958795B9
:1017A00097F90895990F0008550FAA0BE0E8FEEF8E
:1017B00016161706E807F907C0F012161306E40715
:1017C000F50798F0621B730B840B950B39F40A260E
:1017D00061F0232B242B252B21F408950A2609F4EC
:1017E000A140A6958FEF811D811D08950AD083C069
:1017F00074D028F079D018F0952309F065C06AC03C
:10180000AEC08AD0A8F39923D9F35523C9F3950F15
:1018100050E0551FAA27EE27FF27BB270024089476
:10182000679520F4E20FF31FB41F0A1E220F331F27
:10183000441FAA1F6695A9F7779530F4F30FB41FDC
:101840000A1E121E08F46395330F441FAA1F221F9D
:10185000769599F7879520F4B40F0A1E121E631F20
:10186000440FAA1F221F331F8695A9F7862F712DBB
:10187000602D11249F5750408AF0E1F088234AF0F0
:10188000EE0FFF1FBB1F661F771F881F9150504030
:10189000A9F79E3F510570F017C061C05F3FECF3A0
:1018A000983EDCF3869577956795B795F795E7951C
:1018B0009F5FC1F7FE2B880F911D9695879597F92D
:1018C000089599278827089597F99F6780E870E021
:1018D00060E008959FEF80EC089500240A941616A6
:1018E000170618060906089500240A94121613060E
:1018F000140605060895092E0394000C11F488239C
:1019000052F0BB0F40F4BF2B11F460FF04C06F5FB7
:101910007F4F8F4F9F4F089557FD9058440F551F8D
:1019200059F05F3F71F04795880F97FB991F61F061
:101930009F3F79F087950895121613061406551FD8
:10194000F2CF4695F1DF08C0161617061806991F44
:10195000F1CF86957105610508940895E894BB2739
:1019600066277727CB0197F90895E199FECF9FBBB2
:101970008EBBE09A99278DB30895262FE199FECF6B
:101980001CBA9FBB8EBB2DBB0FB6F894E29AE19AAE
:101990000FBE019608952F923F924F925F926F92E1
:1019A0007F928F929F92AF92BF92CF92DF92EF92EF
:1019B000FF920F931F93CF93DF93CDB7DEB7CA1B70
:1019C000DB0B0FB6F894DEBF0FBECDBF09942A889B
:1019D000398848885F846E847D848C849B84AA8443
:1019E000B984C884DF80EE80FD800C811B81AA81D0
:1019F000B981CE0FD11D0FB6F894DEBF0FBECDBF9B
:101A0000ED0108950CD077CF6FDF40F066DF30F046
:101A100021F45F3F19F058CF5111A1CF5BCF7CDF8C
:101A200098F39923C9F35523B1F3951B550BBB27A5
:101A3000AA2762177307840738F09F5F5F4F220F52
:101A4000331F441FAA1FA9F333D00E2E3AF0E0E84B
:101A500030D091505040E695001CCAF729D0FE2F97
:101A600027D0660F771F881FBB1F26173707480729
:101A7000AB07B0E809F0BB0B802DBF01FF279358DF
:101A80005F4F2AF09E3F510568F01ECF68CF5F3F41
:101A9000ECF3983EDCF3869577956795B795F795C7
:101AA0009F5FC9F7880F911D9695879597F90895BF
:101AB000E1E0660F771F881FBB1F6217730784075B
:101AC000BA0720F0621B730B840BBA0BEE1F88F76A
:101AD000E095089567DE08F48FEF0895AA1BBB1BFD
:101AE00051E107C0AA1FBB1FA617B70710F0A61B1E
:101AF000B70B881F991F5A95A9F780959095BC013F
:101B0000CD01089597FB072E16F4009406D077FDBB
:101B100008D0E4DF07FC05D03EF4909581959F4FF7
:101B20000895709561957F4F0895EE0FFF1F059002
:101B3000F491E02D09940F931F93CF93DF9382309C
:101B4000910510F482E090E0E0914C01F0914D019C
:101B500030E020E0B0E0A0E0309799F421153105A5
:101B600009F44AC0281B390B24303105D8F58A8185
:101B70009B816115710589F1FB0193838283FE01CD
:101B800011C0408151810281138148175907E0F04B
:101B90004817590799F4109761F012960C93129711
:101BA00013961C933296CF01DF91CF911F910F9125
:101BB000089500934C0110934D01F4CF2115310588
:101BC00051F04217530738F0A901DB019A01BD011A
:101BD000DF01F801C1CFEF01F9CF90934D01809360
:101BE0004C01CDCFFE01E20FF31F81939193225060
:101BF000310939832883D7CF20914A0130914B0195
:101C0000232B41F420917C0030917D0030934B01D7
:101C100020934A0120917A0030917B0021153105F3
:101C200041F42DB73EB740917E0050917F00241BB8
:101C3000350BE0914A01F0914B01E217F307A0F454
:101C40002E1B3F0B2817390778F0AC014E5F5F4F12
:101C50002417350748F04E0F5F1F50934B014093F8
:101C60004A01819391939FCFF0E0E0E09CCFCF9326
:101C7000DF930097E9F0FC01329713821282A09162
:101C80004C01B0914D01ED0130E020E01097A1F43E
:101C900020813181820F931F20914A0130914B01A5
:101CA0002817390709F061C0F0934B01E0934A010E
:101CB000DF91CF910895EA01CE17DF07E8F54A8159
:101CC0005B819E0141155105B1F7E901FB83EA8370
:101CD00049915991C40FD51FEC17FD0761F480811C
:101CE00091810296840F951FE901998388838281EF
:101CF00093819B838A83F0E0E0E012968D919C9122
:101D000013970097B9F52D913C911197CD0102964B
:101D1000820F931F20914A0130914B0128173907F8
:101D200039F6309751F510924D0110924C01B09355
:101D30004B01A0934A01BCCFD383C2834081518120
:101D4000840F951FC817D90761F44E5F5F4F8881D4
:101D50009981480F591F518340838A819B819383C6
:101D600082832115310509F0B0CFF0934D01E09346
:101D70004C019ECFFD01DC01C0CF13821282D7CF70
:101D8000B0E0A0E0E5ECFEE008CE8C01009741F465
:101D9000CB01D1DE8C01C801CDB7DEB7E0E119CEB1
:101DA000FC01E60FF71F9C0122503109E217F307EF
:101DB00008F499C0D901CD91DC911197C617D707C6
:101DC00090F0C530D10538F3CE01049786179707F8
:101DD00010F3C61BD70B2297C193D1936D937C93BD
:101DE000CF0145DFD8CF5B01AC1ABD0A4C018C0E88
:101DF0009D1EA0914C01B0914D01512C412CF12C14
:101E0000E12C109731F580914A0190914B01881592
:101E1000990509F05CC04616570608F058C0809135
:101E20007A0090917B00009741F48DB79EB7409166
:101E30007E0050917F00841B950BE817F90708F08E
:101E400052C0F0934B01E0934A01F9017183608322
:101E5000A2CF8D919C91119712966C901297139628
:101E60007C901397A815B90559F56C0142E0C40E92
:101E7000D11CCA14DB0420F1AC014A195B09DA0158
:101E80001296159780F06282738251834083D90144
:101E90006D937C93E114F10471F0D7011396FC93D8
:101EA000EE93129778CF22968C0F9D1FF9019183A4
:101EB0008083F301EFCFF0934D01E0934C016BCFA2
:101EC0004816590608F42C017D01D3019ACFCB01A5
:101ED00032DE7C01009739F0AE01B8010FD0C801A5
:101EE000C6DE870158CF10E000E055CF911108956C
:101EF00081568A5108F4805285580895FB01DC010F
:101F000002C001900D9241505040D8F708956817D3
:101F1000790768F4FB01DC01E40FF51FA40FB51F7E
:101F200002C002900E9241505040D8F70895E6CF7B
:101F3000FB01DC0101900D920020E1F70895FB0107
:101F400051915523A9F0BF01DC014D914517411175
:101F5000E1F759F4CD010190002049F04D91401571
:101F60004111C9F3FB014111EFCF81E090E00197EE
:101F7000089510E0C2E2D0E003C0FE01D6DD219654
:0A1F8000C332D107D1F7F894FFCF68
:101F8A00041F04013200FEFF713D5440FEFFAAF116
:101F9A009E400000803FFEFFF40100004E018000D9
:101FAA000001020202030304050607080A0B0D10CA
:101FBA0013171B20262D36404C5B6C8098B5D7FF33
:101FCA0000000000B801630014022B028F01A9016E
:101FDA005348555400424F4F54004553415600440C
:041FEA00494D00005D
:00000001FF

