:1000000022C046C018C744C043C0CBC641C040C090
:100010003FC03EC03DC03CC03BC03AC039C00000FC
:10002000000037000000000038000102000004005A
:10003000000000003600020202020202010204086F
:100040001020C10A2E0B11241FBECFE5D2E0DEBF67
:10005000CDBF21E0ACECB0E001C01D92A835B207E5
:10006000E1F710E0A0E6B0E0E8E4FFE102C00590AF
:100070000D92AC3CB107D9F710E0C2E2D0E003C06A
:100080002197FE014EDDC132D107D1F74CD750CFB9
:10009000B7CFFC011182108284E0369A3699FECFE8
:1000A00094B125B1322F292F40815181240F351F62
:1000B00031832083815089F736952795369527958A
:1000C000318320830895CF92DF92EF92FF920F93B6
:1000D0001F93CF93DF936C01EB017B01E40EF51EC0
:1000E00010E000E0CE15DF0561F06991D601ED91D9
:1000F000FC910190F081E02DC6010995080F191FB0
:10010000F1CFC801DF91CF911F910F91FF90EF9038
:10011000DF90CF90089590E0FC01E65DFF4F3491B1
:10012000FC01E45CFF4F2491FC01EA5CFF4FE49189
:10013000EE23B9F0332329F03130A1F48AB58F775B
:100140008ABDF0E0EE0FFF1FEC5DFF4FA591B4916B
:100150008FB7611118C0F894EC9120952E232C9341
:100160008FBF0895323019F48AB58F7DE9CF3330CF
:1001700021F480B78F7D80BFE4CF343011F78CB588
:100180008F7D8CBDDECFF894EC912E2BE8CFCF93F2
:10019000DF9390E0FC01E45CFF4F24918A5C9F4F69
:1001A000FC0184918823C9F090E0880F991FFC011D
:1001B000E25EFF4FA591B491FC01EC5DFF4FC5914C
:1001C000D49161110DC09FB7F8948C912095822332
:1001D0008C938881282328839FBFDF91CF91089536
:1001E000623051F49FB7F8943C91822F809583231D
:1001F0008C93E8812E2BEFCF8FB7F894EC912E2BB8
:100200002C938FBFEACF1F93CF93DF93182FEB016F
:1002100061E0BDDF209731F460E0812FDF91CF9165
:100220001F9179CFCF3FD10511F461E0F6CFE12FD7
:10023000F0E0E65DFF4FE491E13041F48AB580687B
:100240008ABDC9BDDF91CF911F910895E23029F495
:100250008AB580628ABDC8BDF5CFE33029F480B786
:10026000806280BFCEBDEECFE43029F48CB58062D1
:100270008CBDCBBDE7CFC038D105BCF6CDCF3FB7E5
:10028000F89480911A0190911B01A0911C01B091EA
:100290001D0122B708B601FE05C02F3F19F00196D7
:1002A000A11DB11D3FBFBA2FA92F982F8827BC01D0
:1002B000CD01620F711D811D911D43E0660F771FF7
:1002C000881F991F4A95D1F70895CF92DF92EF9238
:1002D000FF92CF93DF936B017C01D1DFEB01CFDF86
:1002E0006C1B7D0B683E7340A0F0C114D104E10487
:1002F000F10439F4DF91CF91FF90EF90DF90CF9030
:10030000089581E0C81AD108E108F108C851DC4F0E
:10031000E6CFC114D104E104F10409F7EBCF209139
:100320002001309121012817390781F490911E0195
:1003300080911F01981751F0E0911E01F0E0E75203
:10034000FF4F8081082E000C990B08958FEF9FEFCF
:10035000089520912001309121012817390739F49F
:100360008FB7F89410921F0110921E018FBF08954D
:10037000EF92FF920F931F93CF93DF93DC015C9674
:10038000ED90FC905D97E114F10479F481E090E048
:1003900013969C938E93129790E080E0DF91CF911B
:1003A0001F910F91FF90EF9008955196ED91FC9160
:1003B000529750968C915097982F90950FB75E96C4
:1003C0002C915E97122F127021FD6095F894208178
:1003D000112319F1282B2083E7012197F1F728E059
:1003E000462F50E0308160FF1AC0382B3083E70180
:1003F0002197F1F7BA0175956795215089F7112377
:1004000081F08081892380830FBF5C968D919C91C0
:100410000197F1F781E090E0C1CF2923DCCF3923A8
:10042000E5CF9081892BEFCF2091200130912101E0
:100430002817390769F480911F0120911E0190E06F
:10044000805C9F4F821B910960E470E057DB089548
:1004500090E080E00895209120013091210128173B
:100460003907B9F490911E0180911F01981789F006
:10047000E0911E01F0E0E752FF4F808120911E01C4
:1004800030E02F5F3F4F2F73332720931E0190E002
:1004900008958FEF9FEF08952FB7F8948091310161
:1004A00090913201A0913301B09134012FBF80931C
:1004B0003D0190933E01A0933F01B093400185E33D
:1004C00091E0C9DF97FF26C02FB7F89480913101E2
:1004D00090913201A0913301B09134012FBF40912E
:1004E0003D0150913E0160913F0170914001841B9C
:1004F000950BA60BB70B4091390150913A016091D1
:100500003B0170913C0184179507A607B707B8F225
:100510008FEF9FEF0895CF92DF92EF92FF920F93AC
:100520001F93CF93DF9300D0CDB7DEB71A82198225
:100530008F3809F486C08C3909F4BEC08C3009F0BC
:10054000F0C086ED90E0A5DD0091D6001091D700B7
:100550000115110509F4A3C0C0907200D09073007A
:10056000E0907400F090750020E030E0A901C70130
:10057000B601ACDA18160CF092C02DEC3CEC4CE84D
:1005800054E4C701B6012ED96B017C01B80190E09B
:1005900080E0C7D89B01AC01C701B6012FDA609398
:1005A0006E0070936F0080937000909371001092B2
:1005B0002D0110922C01C0906E00D0906F00E09041
:1005C0007000F09071002AEA31EF42ED50E4C7016B
:1005D000B6017CDA181634F481E090E090932D0196
:1005E00080932C0124E533EE41E550E4C701B601C8
:1005F00094D887FF06C08FEF9FEF90932D018093D3
:100600002C0180912C0190912D0120916C00309152
:100610006D002817390711F01092D80090936D00E3
:1006200080936C00892B81F18AEA91EFAEE9B0E406
:1006300080936E0090936F00A0937000B093710050
:1006400023C0CE01019625DD1092290110922801C8
:1006500089819A818238914030F081E090E09093D6
:1006600029018093280180912801909129012091EE
:100670007600309177002817390711F01092D800D2
:1006800090937700809376000F900F90DF91CF9139
:100690001F910F91FF90EF90DF90CF9008958AEA1D
:1006A00091EFAEE9B0E480936E0090936F00A09359
:1006B0007000B09371007BCF84ED90E0EADC20E025
:1006C00030E040E450E460916E0070916F008091E2
:1006D000700090917100FAD91816B4F46091D400AA
:1006E0007091D5006115710579F088EB91E0F2D930
:1006F00090E080E016D8609372007093730080934E
:10070000740090937500C0CF80E090E0A0E8BFE354
:100710008093720090937300A0937400B09375005F
:10072000B3CF80912701813009F05CC082ED90E069
:10073000B0DC6091D2007091D30090E080E0F1D7FE
:1007400020916E0030916F004091700050917100C7
:1007500049D820E030E040E85AE344D8609368008C
:100760007093690080936A0090936B0010922B0144
:1007700010922A01C0906800D0906900E0906A0051
:10078000F0906B002AE939E946E850E4C701B60168
:100790009DD9181634F481E090E090932B0180935A
:1007A0002A012EEA37E44BE150E4C701B601B5D780
:1007B00087FF06C08FEF9FEF90932B0180932A0154
:1007C00080912A0190912B01209166003091670061
:1007D0002817390711F01092D80090936700809382
:1007E000660052CF109268001092690010926A0061
:1007F00010926B00BBCF813021F048F0843021F0A3
:10080000089570E081E0FFCC70E084E0FCCF67FFEA
:1008100003C061E080E07FCC60E0FCCF8823C9F0BA
:10082000813059F180916000843008F450C01092FA
:1008300060008091CE0090916100992349F19091E0
:100840006400891708F11092610091509093CE00D6
:1008500007C01092CE0081E080936100109260008A
:1008600080916000811137C0E091CE00F0E0E05847
:10087000FF4F608180916500BECF809164008093BE
:10088000CE0010926100EACF8F5F8093CE00E8CF58
:1008900081111BC080912701813039F08091CC00FB
:1008A0009091CD008639910550F081E080936100F0
:1008B0008093CE001092CD001092CC00D1CF019643
:1008C0009093CD008093CC00CBCF8150DECF8F5F53
:1008D00080936000C5CF08950F931F93CF93DF934C
:1008E0008091D100882321F1009162001091630072
:1008F000C091CF00D091D000C801969587958C17F4
:100900009D0770F081E08ADFC017D10758F0109280
:10091000D0001092CF00DF91CF911F910F910895D9
:1009200080E0F1CF2196D093D000C093CF00F3CFD9
:1009300080912701813029F4DF91CF911F910F9190
:100940006DCF82E0F9CFCF93C82F882349F0843050
:1009500019F460E080E04FDF60E08C2FCF914BCF47
:1009600070E060E084E04FDCF7CF80912A01909145
:100970002B01181619066CF020912C0130912D01D5
:10098000232B39F4209128013091290112161306E6
:1009900094F484E0809365008FE18093640084E0A8
:1009A000D2DF81E08093D1001092D0001092CF006E
:1009B00089E190E029C01092D0001092CF0022E38C
:1009C00030E030936300209362001092D1002091B8
:1009D00027012130F1F52091790039EF320F3230C3
:1009E000F8F42830B1F484E0809365008FE18093BF
:1009F000640084E0A8DF81E08093D1001092D000F1
:100A00001092CF0082E390E09093630080936200A5
:100A100063CF109265008FE18093640080E0EACF9D
:100A2000892B79F4109265008FE18093640080E057
:100A30008ADF80917900843009F4B3CF853041F7A3
:100A4000DACF84E0809365008FE18093640084E0D6
:100A5000EFCF892B41F4109265008AE18093640006
:100A600080E071DFD5CF84E0809365008AE18093D8
:100A7000640084E0F6CFCF93DF93D091D8008CE070
:100A800087B9C7E8C6B962E070E080E090E01DDC9D
:100A90008CE041DD8CE987B9C6B962E070E080E0A6
:100AA00090E013DC8CE937DD8FE887B9C6B962E0E6
:100AB00070E080E090E009DC8FE82DDD81E087B90F
:100AC000C6B962E070E080E090E0FFDB80E023DD0B
:100AD0008091D8008D1349DFD093D800DF91CF915A
:100AE00008951F93CF93DF93D82F162F2CDF80917B
:100AF0002201882331F0A89564EF71E080E090E056
:100B0000E4DBC0E0C117A1F0A8956FEF8D2F73DE75
:100B100064EF71E080E090E0D8DBA89560E08D2F75
:100B20006ADE64EF71E080E090E0CFDBCF5FEACF78
:100B3000A895DF91CF911F910895CF93C82F109260
:100B4000CD001092CC0010926000109230011092F3
:100B50002F0110922601109225011092D0001092C0
:100B6000CF00682F85E0D7DA809127018C1729F014
:100B700064EF71E080E090E0A8DBC0932701CF91A3
:100B80000895FB0144815581FC012481358124179E
:100B9000350770F080819181009751F0FB016081F1
:100BA00071816115710521F0B5D921E0892B09F01A
:100BB00020E0822F08950F931F93CF93DF93EC01D2
:100BC00088819981009759F02A813B812617370740
:100BD00030F081E0DF91CF911F910F9108958B014B
:100BE0006F5F7F4FC9D8009759F0998388831B8323
:100BF0000A832C813D81232B61F7FC011082E9CF10
:100C000080E0E8CFCF93DF93EC0188819981009752
:100C100009F029D8198218821D821C821B821A822F
:100C2000DF91CF910895EF92FF920F931F93CF938F
:100C3000DF93EC017B01198218821B821A821D82CC
:100C40001C82FB0101900020E9F731978F01061B00
:100C5000170BB801B0DF811108C0CE01DF91CF9131
:100C60001F910F91FF90EF90CDCF1D830C83B701A3
:100C700088819981DF91CF911F910F91FF90EF9023
:100C800042C9FC0180819181EEC761EE90E080E075
:100C900070D66091780082E090E06BC690E080E0D2
:100CA00060D6813E21F084EF80937800EECF82E021
:100CB00090E057D68093780008950F931F93CF93B9
:100CC000DF93882309F459C0809179008930E1F5D8
:100CD00088EE93E09093300180932F0188E0809319
:100CE0007900C4E6D0E008EE13E080912F019091E6
:100CF0003001883E934090F5A89580912F01909106
:100D00003001BE01E7D6892B09F4B5DE80912C01B4
:100D100090912D0118161906E4F080912801909108
:100D2000290118161906ACF0D7DD6AE070E080E002
:100D300090E0CBDA80912F01909130010196909351
:100D4000300180932F01D1CF1092300110922F01EA
:100D5000C5CF1093300100932F01ECCF70E060E01D
:100D600081E051DA80E0E9DE81E08093790083DE82
:100D7000DF91CF911F910F91F8CD7DDE80912C01F5
:100D800090912D01019799F380912801909129016B
:100D9000019769F381E0D1DE84E0809379007EDF02
:100DA000E6CF1F920F920FB60F9211242F933F930D
:100DB0008F939F93AF93BF938091310190913201B4
:100DC000A0913301B09134013091190126E0230F35
:100DD0002D3768F129E8230F0396A11DB11D20933B
:100DE00019018093310190933201A0933301B093A4
:100DF000340180911A0190911B01A0911C01B091C6
:100E00001D010196A11DB11D80931A0190931B0134
:100E1000A0931C01B0931D01BF91AF919F918F9141
:100E20003F912F910F900FBE0F901F901895029633
:100E3000A11DB11DD4CF1F920F920FB60F92112496
:100E40002F933F934F935F936F937F938F939F93D2
:100E5000AF93BF93EF93FF93E0912001F0912101B5
:100E6000309749F0A685B7858585968D91FF14C08A
:100E70009C918923A1F4FF91EF91BF91AF919F9134
:100E80008F917F916F915F914F913F912F910F9033
:100E90000FBE0F901F9018959C91892361F7A3892D
:100EA000B4899C918589809589238C9386899789BB
:100EB0000197F1F7608D718DA685B785558538E06E
:100EC00020E0CB010197F1F7822F90E0959587956F
:100ED000282F4C91452309F02068315091F7868DD9
:100EE00081FD209580911F0190E001968F739927D5
:100EF00030911E01381799F0A0911F01B0E0A75260
:100F0000BF4F2C9380931F01828D938D0197F1F732
:100F1000A389B4898C919589892B8C93ACCF868DCC
:100F20008160868FF1CFCF93DF93CDB7DEB72C975B
:100F30000FB6F894DEBF0FBECDBF83E08ABD83BF7E
:100F4000789489B7826089BF80E48CBD8FEF8DBDB6
:100F500087EC80BF86B18877866886B9379A84B770
:100F60008093230114BE0FB6F894A89581B58861CB
:100F700081BD11BC0FBE1092500110924F01109212
:100F80004E0110924D0110924C0110924B0187E0DE
:100F90009AE1909352018093510130914101363092
:100FA00020F542EF5CE050934C0140934B0145E04B
:100FB0005AE150934E0140934D014BE753E150935A
:100FC000500140934F012BB720622BBF45E350E007
:100FD000509349014093480121E001C0220F3A9506
:100FE000EAF720934A010197F1F780914F01909120
:100FF0005001892B49F1E0912001F091210121E07C
:10100000E533F20709F1309739F0A389B4899C914F
:101010008589809589238C93809153018E7F80935D
:10102000530110921F0110921E0185E391E09093ED
:10103000210180932001E0914801F09149018081D4
:1010400090914A01892B80838AEF90E0A0E0B0E084
:101050008093390190933A01A0933B01B0933C01F6
:1010600062E083E094D861E080E091D860E080E0C5
:1010700052D861E084E08BD860E084E04CD861E035
:1010800085E085D881E08093270180E056DD61E02E
:1010900081E07DD870E060E081E0B5D8FFDD10919F
:1010A000230111FF03C061E080E01BDD10FF03C0DE
:1010B00062E080E016DD13FF03C063E084E011DD31
:1010C00012FF03C064E084E00CDD84EF8093220112
:1010D00088E19FE00FB6F894A89581BD0FBE91BD41
:1010E0002FE3422E20E0522E39E3C32E30E0D32EE0
:1010F00043E0742E58E0652E66E0262E75E0372E0C
:10110000A895F2018491F6019491992309F44DC0B8
:10111000E92FF0E0EE0FFF1FE05DFF4FA591B491C6
:101120009C91892331E020E009F430E0832F922F55
:10113000F1E08F27817080932E0120912F01309153
:1011400030012436310538F0811101C094DC109251
:10115000300110922F0185E391E0E1D8019609F466
:10116000FFC062EC70E0CE0107965DDD95D997FD7A
:101170001FC08A309105E1F089831A820B851C8596
:101180000F5F1F4FB801CE01079615DD882371F35D
:101190002F8138858B859C85BE016F5F7F4F820FC5
:1011A000931FB1D61C870B87E1CF90E080E0C0CFC2
:1011B0000F8118850115110569F0F80181918F01E2
:1011C000882341F0082E000C990B8CD6F80131973A
:1011D0008083F3CFAF80B884A114B10439F00B85BC
:1011E0001C8575010115110509F0FAC00B851C85D8
:1011F0000430110508F4B1C062EC70E0CE01019634
:1012000012DD8B859C858430910548F1801791070C
:1012100008F48C01EF81F885E00FF11F90801082B7
:10122000EF80F884F3E0EF0EF11CE114F10471F0AB
:10123000F70101900020E9F731975F01AE18BF0870
:10124000B501CE010196B7DC8111FDC0CE0101963A
:10125000D9DC8F819885080F191FF8019082898148
:101260009A8110E0009711F015D2162FCE01019649
:1012700008DD60EB70E0CE010196D5DCBE016F5F4A
:101280007F4FCE0107967DDC082FCE010196F9DC59
:1012900001116092790065EB70E0CE010196C3DC2C
:1012A000BE016F5F7F4FCE0107966BDC082FCE012A
:1012B0000196E7DC0111709279006AEB70E0CE01D3
:1012C0000196B1DCBE016F5F7F4FCE01079659DCFE
:1012D000082FCE010196D5DC0111D7DC6FEB70E051
:1012E000CE010196A0DCBE016F5F7F4FCE01079655
:1012F00048DC082FCE010196C4DC002319F0612FD1
:1013000080E0EFDB63EC70E0CE0101968CDCBE0187
:101310006F5F7F4FCE01079634DC082FCE01019618
:10132000B0DC002319F0612F84E0DBDB67EC70E0B8
:10133000CE01019678DCBE016F5F7F4FCE0107962C
:1013400020DC082FCE0101969CDC002331F01093A5
:101350007800612F70E081E056D7CE01079691DCCE
:1013600080912C0190912D01181619067CF0809126
:101370002A0190912B011816190644F0809128013A
:1013800090912901181619060CF064C0809127016C
:10139000813019F4F9E0F093790090912401809163
:1013A00079009813E2DA80917900809324018530E6
:1013B00009F4E1C008F0D6C0833009F4D9C08CDA52
:1013C00080912F019091300101969093300180938C
:1013D0002F016AE070E080E090E077D791CE740151
:1013E0004701FFEF8F1A9F0AF7018081082E000C3A
:1013F000990B8BD1892B99F7015011090A0D1B1DEF
:10140000F8018081082E000C990B7FD1892B31F0D7
:101410000E151F0518F001501109F2CFA8014F5FFA
:101420005F4F4E195F095C874B87AE14BF0418F4F9
:10143000B701C5015FD5EF81F8858B859C85E80FE5
:10144000F91F1082D3CEBE82AD82B70189819A8105
:101450005AD5FFCE8091790090912E01992379F190
:10146000813069F4809125019091260183369105A0
:10147000D0F010922601109225017092790080918F
:101480007900863009F089CF80912501909126015D
:101490008A3221E0920768F010922601109225010D
:1014A000609279007ACF019690932601809325016E
:1014B000E6CF019690932601809325016ECF84306C
:1014C00071F480912501909126018C32E1E09E0714
:1014D000B8F1109226011092250130927900809186
:1014E0007900853071F480912501909126018C3B23
:1014F000F2E09F0758F110922601109225012092E8
:10150000790080917900873079F48091250190915C
:1015100026018A3221E09207F8F0109226011092FB
:10152000250184E08093790080917900813019F061
:10153000863009F032CF10922601109225012DCF6E
:1015400001969093260180932501C9CF019690932F
:10155000260180932501D5CF019690932601809393
:101560002501E2CF8850823008F029CF81E001C008
:1015700080E0A3DB24CF6091780070E081E043D667
:101580001ECF809179008093D8001092380110927C
:10159000370188EE93E0A0E0B0E0809339019093AA
:1015A0003A01A0933B01B0933C0184EA90E0909310
:1015B00036018093350110924C0110924B0110922C
:1015C0004E0110924D011092500110924F01109255
:1015D000520110925101609153016E7F6D7F6093B3
:1015E00053016695617081E0682780E094D561E0E1
:1015F00080E0CDD5ECE3F0E0E491E0934501E6E353
:10160000F0E0E491F0E0EE0FFF1FEC5DFF4F8591FD
:101610009491909347018093460160E083E0B7D5B1
:101620008091530181FD03C061E083E074D583E0C4
:1016300080934101EFE3F0E0E491E0934201E9E3BC
:10164000F0E0E491F0E0EE0FFF1FE05DFF4F8591C9
:1016500094919093440180934301089584EA90E02B
:101660009093360180933501809120019091210162
:101670008553914071F4E0914801F09149019081C6
:1016800080914A01809589238083109221011092D4
:10169000200108951F93FC0199278827BC01E89435
:1016A00011911032E9F3193010F01E30C8F31B32DB
:1016B00049F01D3241F4689405C012D0610F711DCC
:1016C000811D911D119110531A30B8F33EF490957D
:1016D0008095709561957F4F8F4F9F4F1F91089513
:1016E000592F482F372F262F660F771F881F991FD6
:1016F000660F771F881F991F620F731F841F951F26
:10170000660F771F881F991F08959111D6C08032E8
:1017100019F089508550D0F7089540D008F481E041
:101720000895E89409C097FB3EF4909580957095D4
:1017300061957F4F8F4F9F4F9923A9F0F92F96E91D
:10174000BB279395F695879577956795B795F11192
:10175000F8CFFAF4BB0F11F460FF1BC06F5F7F4F2F
:101760008F4F9F4F16C0882311F096E911C0772341
:1017700021F09EE8872F762F05C0662371F096E84A
:10178000862F70E060E02AF09A95660F771F881F19
:10179000DAF7880F9695879597F90895990F0008BD
:1017A000550FAA0BE0E8FEEF16161706E807F90733
:1017B000C0F012161306E407F50798F0621B730BCE
:1017C000840B950B39F40A2661F0232B242B252B4F
:1017D00021F408950A2609F4A140A6958FEF811DF2
:1017E000811D08950AD083C074D028F079D018F0F4
:1017F000952309F065C06AC0AEC08AD0A8F39923CA
:10180000D9F35523C9F3950F50E0551FAA27EE27AA
:10181000FF27BB2700240894679520F4E20FF31FED
:10182000B41F0A1E220F331F441FAA1F6695A9F773
:10183000779530F4F30FB41F0A1E121E08F4639557
:10184000330F441FAA1F221F769599F7879520F41E
:10185000B40F0A1E121E631F440FAA1F221F331F3C
:101860008695A9F7862F712D602D11249F57504022
:101870008AF0E1F088234AF0EE0FFF1FBB1F661FBE
:10188000771F881F91505040A9F79E3F510570F077
:1018900017C061C05F3FECF3983EDCF38695779507
:1018A0006795B795F795E7959F5FC1F7FE2B880F72
:1018B000911D9695879597F90895992788270895FA
:1018C00097F99F6780E870E060E008959FEF80ECF3
:1018D000089500240A941616170618060906089596
:1018E00000240A9412161306140605060895092EFC
:1018F0000394000C11F4882352F0BB0F40F4BF2B6B
:1019000011F460FF04C06F5F7F4F8F4F9F4F0895AA
:1019100057FD9058440F551F59F05F3F71F04795A0
:10192000880F97FB991F61F09F3F79F08795089585
:10193000121613061406551FF2CF4695F1DF08C0A4
:10194000161617061806991FF1CF869571056105C1
:1019500008940895E894BB2766277727CB0197F969
:101960000895E199FECF9FBB8EBBE09A99278DB376
:101970000895262FE199FECF1CBA9FBB8EBB2DBBCD
:101980000FB6F894E29AE19A0FBE019608952F924D
:101990003F924F925F926F927F928F929F92AF92FF
:1019A000BF92CF92DF92EF92FF920F931F93CF934C
:1019B000DF93CDB7DEB7CA1BDB0B0FB6F894DEBFE3
:1019C0000FBECDBF09942A88398848885F846E8409
:1019D0007D848C849B84AA84B984C884DF80EE8053
:1019E000FD800C811B81AA81B981CE0FD11D0FB65C
:1019F000F894DEBF0FBECDBFED0108950CD077CFB8
:101A00006FDF40F066DF30F021F45F3F19F058CF10
:101A10005111A1CF5BCF7CDF98F39923C9F35523F4
:101A2000B1F3951B550BBB27AA27621773078407D1
:101A300038F09F5F5F4F220F331F441FAA1FA9F387
:101A400033D00E2E3AF0E0E830D091505040E69579
:101A5000001CCAF729D0FE2F27D0660F771F881FDA
:101A6000BB1F261737074807AB07B0E809F0BB0BC9
:101A7000802DBF01FF2793585F4F2AF09E3F5105ED
:101A800068F01ECF68CF5F3FECF3983EDCF386959D
:101A900077956795B795F7959F5FC9F7880F911D63
:101AA0009695879597F90895E1E0660F771F881F4F
:101AB000BB1F621773078407BA0720F0621B730B02
:101AC000840BBA0BEE1F88F7E095089567DE08F4E3
:101AD0008FEF0895AA1BBB1B51E107C0AA1FBB1FB4
:101AE000A617B70710F0A61BB70B881F991F5A95AA
:101AF000A9F780959095BC01CD01089597FB072E1D
:101B000016F4009406D077FD08D0E4DF07FC05D07A
:101B10003EF4909581959F4F0895709561957F4F04
:101B20000895EE0FFF1F0590F491E02D09940F9397
:101B30001F93CF93DF938230910510F482E090E001
:101B4000E0915601F091570130E020E0B0E0A0E0D4
:101B5000309799F42115310509F44AC0281B390B37
:101B600024303105D8F58A819B816115710589F191
:101B7000FB0193838283FE0111C040815181028168
:101B8000138148175907E0F04817590799F410973F
:101B900061F012960C93129713961C933296CF0114
:101BA000DF91CF911F910F910895009356011093EB
:101BB0005701F4CF2115310551F04217530738F082
:101BC000A901DB019A01BD01DF01F801C1CFEF01DD
:101BD000F9CF9093570180935601CDCFFE01E20FCC
:101BE000F31F819391932250310939832883D7CFF2
:101BF0002091540130915501232B41F420917C0018
:101C000030917D00309355012093540120917A004A
:101C100030917B002115310541F42DB73EB740913D
:101C20007E0050917F00241B350BE0915401F09110
:101C30005501E217F307A0F42E1B3F0B28173907B5
:101C400078F0AC014E5F5F4F2417350748F04E0F18
:101C50005F1F5093550140935401819391939FCFFF
:101C6000F0E0E0E09CCFCF93DF930097E9F0FC0138
:101C7000329713821282A0915601B0915701ED0163
:101C800030E020E01097A1F420813181820F931F72
:101C900020915401309155012817390709F061C08E
:101CA000F0935501E0935401DF91CF910895EA013B
:101CB000CE17DF07E8F54A815B819E01411551058A
:101CC000B1F7E901FB83EA8349915991C40FD51F0C
:101CD000EC17FD0761F4808191810296840F951FB6
:101CE000E90199838883828193819B838A83F0E0D1
:101CF000E0E012968D919C9113970097B9F52D9184
:101D00003C911197CD010296820F931F20915401AF
:101D1000309155012817390739F6309751F510924F
:101D2000570110925601B0935501A0935401BCCFB6
:101D3000D383C28340815181840F951FC817D9076F
:101D400061F44E5F5F4F88819981480F591F51831D
:101D500040838A819B81938382832115310509F019
:101D6000B0CFF0935701E09356019ECFFD01DC0107
:101D7000C0CF13821282D7CFB0E0A0E0E1ECFEE04A
:101D800008CE8C01009741F4CB01D1DE8C01C80153
:101D9000CDB7DEB7E0E119CEFC01E60FF71F9C01DD
:101DA00022503109E217F30708F499C0D901CD9107
:101DB000DC911197C617D70790F0C530D10538F3DD
:101DC000CE0104978617970710F3C61BD70B2297EF
:101DD000C193D1936D937C93CF0145DFD8CF5B0145
:101DE000AC1ABD0A4C018C0E9D1EA0915601B091FB
:101DF0005701512C412CF12CE12C109731F5809199
:101E00005401909155018815990509F05CC046165A
:101E1000570608F058C080917A0090917B00009797
:101E200041F48DB79EB740917E0050917F00841B96
:101E3000950BE817F90708F052C0F0935501E093AD
:101E40005401F90171836083A2CF8D919C91119708
:101E500012966C90129713967C901397A815B9055B
:101E600059F56C0142E0C40ED11CCA14DB0420F108
:101E7000AC014A195B09DA011296159780F062826B
:101E8000738251834083D9016D937C93E114F104F3
:101E900071F0D7011396FC93EE93129778CF2296A8
:101EA0008C0F9D1FF90191838083F301EFCFF09395
:101EB0005701E09356016BCF4816590608F42C01E0
:101EC0007D01D3019ACFCB0132DE7C01009739F03E
:101ED000AE01B8010FD0C801C6DE870158CF10E0AF
:101EE00000E055CF9111089581568A5108F480522F
:101EF00085580895FB01DC0102C001900D9241500C
:101F00005040D8F70895FB01DC0101900D920020AC
:101F1000E1F70895FB01DC014150504030F08D9114
:101F20000190801919F40020B9F7881B990B0895C6
:101F300010E0C2E2D0E003C0FE01F3DD2196C3321F
:081F4000D107D1F7F894FFCF9F
:101F4800040132001F04FEFF713D5440FEFFAAF158
:101F58009E400000803FFEFFF40100005801800011
:101F68000001020202030304050607080A0B0D100C
:101F780013171B20262D36404C5B6C8098B5D7FF75
:101F880000000000B801630014022B028F01A901B0
:101F98005348555400424F4F540045534156004250
:0C1FA8004C4700424C520044494D0000E0
:00000001FF
