:1000000021C045C044C043C042C09FC440C03FC09F
:100010003EC03DC03CC03BC03AC039C038C0000003
:10002000000037000000000038000102000004005A
:10003000000000003600020202020202010204086F
:100040001020EB0511241FBECFE5D1E0DEBFCDBFF0
:1000500010E0A0E6B0E0E2E3FFE002C005900D9200
:10006000AA39B107D9F720E0AAE9B0E001C01D9292
:10007000AB3BB207E1F710E0C2E2D0E003C021974A
:10008000FE014FD7C132D107D1F7A9D450C7B8CF9D
:10009000FC011182108284E0369A3699FECF94B129
:1000A00025B1322F292F40815181240F351F3183F3
:1000B0002083815089F7369527953695279531838A
:1000C0002083089587FF09C08F7771F1813071F126
:1000D000823071F1833071F18FEF90E0FC01E65DC9
:1000E000FF4F3491FC01E45CFF4F2491FC01EA5C7A
:1000F000FF4FE491EE23B9F0332329F03130E1F4DE
:100100008AB58F778ABDF0E0EE0FFF1FEC5DFF4FE1
:10011000A591B4918FB7611120C0F894EC9120950E
:100120002E232C938FBF089585E0D7CF82E0D5CFC3
:1001300084E0D3CF83E0D1CF323019F48AB58F7DFC
:10014000E1CF333021F480B78F7D80BFDCCF3430F6
:10015000D1F68CB58F7D8CBDD6CFF894EC912E2B3B
:10016000E0CFCF93DF9387FF09C08F7779F181309C
:1001700079F1823079F1833079F18FEF90E0FC01F1
:10018000E45CFF4F24918A5C9F4FFC01849188239B
:10019000D1F090E0880F991FFC01E25EFF4FA5911E
:1001A000B491FC01EC5DFF4FC591D4916230B1F484
:1001B0009FB7F8943C91822F809583238C93E8819C
:1001C0002E2B28839FBFDF91CF91089585E0D6CF56
:1001D00082E0D4CF84E0D2CF83E0D0CF8FB7F89441
:1001E000EC912E2B2C938FBFEECF1F93CF93DF93E9
:1001F000182FEB0161E0B5DF209731F460E0812F2B
:10020000DF91CF911F915ECFCF3FD10511F461E017
:10021000F6CFE12FF0E0E65DFF4FE491E13041F4ED
:100220008AB580688ABDC9BDDF91CF911F910895BD
:10023000E23029F48AB580628ABDC8BDF5CFE330CB
:1002400029F480B7806280BFCEBDEECFE43029F4C0
:100250008CB580628CBDCBBDE7CFC038D105BCF674
:10026000CDCF3FB7F8948091AC009091AD00A091B4
:10027000AE00B091AF0022B708B601FE05C02F3F17
:1002800019F00196A11DB11D3FBFBA2FA92F982FBC
:100290008827BC01CD01620F711D811D911D43E0B6
:1002A000660F771F881F991F4A95D1F70895CF923F
:1002B000DF92EF92FF92CF93DF936B017C01D1DF4E
:1002C000EB01CFDF6C1B7D0B683E7340A0F0C114C7
:1002D000D104E104F10439F4DF91CF91FF90EF9064
:1002E000DF90CF90089581E0C81AD108E108F108A5
:1002F000C851DC4FE6CFC114D104E104F10409F781
:10030000EBCF1092A5001092A400109277001092EB
:10031000B2001092B1001092A3001092A2000895B2
:10032000CF92DF92EF92FF920F931F93CF93DF93C1
:1003300000D0CDB7DEB71A8219828F3809F486C093
:100340008C3909F4BEC08C3009F0F0C080EA90E02E
:100350009FDE0091A0001091A1000115110509F484
:10036000A3C0C0907100D0907200E0907300F09034
:10037000740020E030E0A901C701B6014FD518167E
:100380000CF092C02DEC3CEC4CE854E4C701B601F3
:1003900049D56B017C01B80190E080E08DD49B01D0
:1003A000AC01C701B60120D460936D0070936E005C
:1003B00080936F00909370001092B9001092B80073
:1003C000C0906D00D0906E00E0906F00F0907000D3
:1003D0002AEA31EF42ED50E4C701B6011FD51816E5
:1003E00034F481E090E09093B9008093B80024E564
:1003F00033EE41E550E4C701B601F2D387FF06C0F2
:100400008FEF9FEF9093B9008093B8008091B80070
:100410009091B90020916B0030916C00281739073A
:1004200011F01092A60090936C0080936B00892BC2
:1004300081F18AEA91EFAEE9B0E480936D00909388
:100440006E00A0936F00B093700023C0CE010196A0
:100450001FDE1092B5001092B40089819A81823813
:10046000914030F081E090E09093B5008093B4002B
:100470008091B4009091B500209175003091760084
:100480002817390711F01092A600909376008093F8
:1004900075000F900F90DF91CF911F910F91FF90FA
:1004A000EF90DF90CF9008958AEA91EFAEE9B0E443
:1004B00080936D0090936E00A0936F00B0937000D6
:1004C0007BCF8EE990E0E4DD20E030E040E450E4D2
:1004D00060916D0070916E0080916F00909170003E
:1004E0009DD41816B4F460919E0070919F00611520
:1004F000710579F088EB91E000D590E080E0DCD3E5
:1005000060937100709372008093730090937400F5
:10051000C0CF80E090E0A0E8BFE3809371009093AB
:100520007200A0937300B0937400B3CF8091B300B6
:10053000882309F45CC08CE990E0AADD60919C00FE
:1005400070919D0090E080E0B7D320916D003091D4
:100550006E0040916F005091700064D420E030E054
:1005600040E85AE35FD4609367007093680080931B
:10057000690090936A001092B7001092B600C09084
:100580006700D0906800E0906900F0906A002AE966
:1005900039E946E850E4C701B60140D4181634F4EE
:1005A00081E090E09093B7008093B6002EEA37E4A4
:1005B0004BE150E4C701B60113D387FF06C08FEFAC
:1005C0009FEF9093B7008093B6008091B600909112
:1005D000B70020916500309166002817390711F0A7
:1005E0001092A600909366008093650052CF1092FF
:1005F0006700109268001092690010926A00BBCFE9
:10060000CF93C82F8093620060936100882351F0DC
:1006100070E060E080E0C43041F070E060E08C2F7A
:10062000CF91E3CD70E060E084E0DFDDF6CF88239A
:10063000C9F0813061F180917700843008F451C0B5
:100640001092770080919A0090916000992351F167
:1006500090916100891710F1109260009150909371
:100660009A0007C010929A0081E080936000109277
:10067000770080917700811138C0E0919A00F0E016
:10068000E758FF4F608170E080916200AECD8091AD
:10069000610080939A0010926000E9CF8F5F809391
:1006A0009A00E7CF81111BC08091B300811107C070
:1006B0008091A4009091A5008639910550F081E0C9
:1006C0008093600080939A001092A5001092A4007D
:1006D000D0CF01969093A5008093A400CACF8150FB
:1006E000DECF8F5F80937700C4CF08950F931F9361
:1006F000CF93DF9380919B00882321F100916300C9
:1007000010916400C091A200D091A300C8019695F9
:1007100087958C179D0770F081E089DFC017D1079E
:1007200058F01092A3001092A200DF91CF911F9178
:100730000F91089580E0F1CF2196D093A300C0934C
:10074000A200F3CF8091B300882331F081E0DF91E4
:10075000CF911F910F916BCF82E0F9CFCF93809112
:10076000B6009091B700181619066CF02091B800E9
:100770003091B900232B39F42091B4003091B500A9
:100780001216130694F46FE184E03ADF81E080935F
:100790009B001092A3001092A20089E190E0909338
:1007A000640080936300CF91A1CF1092A3001092B8
:1007B000A20022E330E030936400209363001092A3
:1007C0009B002091B3002223C9F0C09178002AEF4A
:1007D0002C0F6FE1223048F484E0C73009F080E04C
:1007E0000FDF81E080939B00DECF892B29F480E02E
:1007F00007DFC430C1F6F5CF84E0FACF6AE1892B78
:1008000019F480E0FDDECFCF84E0FCCFCF93DF93FF
:10081000D091A6008CE087B9C7E8C6B962E070E065
:1008200080E090E044DD8CE07BDD8CE987B9C6B9DF
:1008300062E070E080E090E03ADD8CE971DD8FE805
:1008400087B9C6B962E070E080E090E030DD8FE803
:1008500067DD81E087B9C6B962E070E080E090E0D2
:1008600026DD80E05DDD8091A6008D1377DFD093DB
:10087000A600DF91CF910895CF93C82F61E0811139
:1008800001C060E085E01EDC8091B3008C1729F088
:1008900064EF71E080E090E00ADDC093B300CF9197
:1008A00008950F931F93CF93DF938823E1F18091F5
:1008B0007800D0E0C0E0883011F4C8EED3E087E0E3
:1008C0008093780004E610E0C83E83E0D807F8F48F
:1008D000CE01B80112D3892B09F498DF8091B800BA
:1008E0009091B900181619067CF08091B40090918F
:1008F000B5001816190644F0F9DE6AE070E080E0F1
:1009000090E0D5DC2196E0CFC8EED3E0FBCF80E0CD
:10091000B3DFF7DC81E08093780078DFDF91CF915F
:100920001F910F911BCF72DF8091B8009091B90099
:10093000019799F38091B4009091B500019769F304
:1009400081E09ADFDEDC84E0E6CF1F920F920FB6E3
:100950000F9211242F933F938F939F93AF93BF9345
:100960008091A8009091A900A091AA00B091AB003D
:100970003091A70026E0230F2D3768F129E8230FD7
:100980000396A11DB11D2093A7008093A80090930A
:10099000A900A093AA00B093AB008091AC00909105
:1009A000AD00A091AE00B091AF000196A11DB11DA8
:1009B0008093AC009093AD00A093AE00B093AF00D5
:1009C000BF91AF919F918F913F912F910F900FBE4B
:1009D0000F901F9018950296A11DB11DD4CF83E0F2
:1009E0008ABD83BF789489B7826089BF80E48CBD5B
:1009F0008FEF8DBD87EC80BF86B18877866886B91A
:100A0000379A61E080E0ADDB61E084E0AADB61E081
:100A100085E0A7DB62E083E0A4DB73DC80E02CDF11
:100A200064EF71E080E090E042DCCFE3D0E009E3E6
:100A300010E028E0F22E34E0E32E45E0D42E57E01B
:100A4000C52E63E0B62EFE018491F801949199239E
:100A500009F44EC0E92FF0E0EE0FFF1FE05DFF4FFD
:100A6000A591B4919C91892331E020E009F430E014
:100A7000832F922FF1E08F27282F2170A22E209311
:100A8000BA00211101C0C2DE8091B8009091B90076
:100A90001816190674F08091B6009091B7001816D8
:100AA00019063CF08091B4009091B5001816190613
:100AB00014F58091B3008111F0927800A090780035
:100AC0008091B0008A114ADEA092B00083E0A8169F
:100AD00009F47CC0A81628F089EF8A0D823008F44A
:100AE00078C004DE6AE070E080E090E0E0DBABCF4D
:100AF00090E080E0BFCF80917800AA2071F1813032
:100B000069F48091B1009091B20083369105C8F0EC
:100B10001092B2001092B100B092780080917800EB
:100B2000853061F68091B1009091B2008A32E1E0A7
:100B30009E0768F01092B2001092B100C092780047
:100B4000BDCF01969093B2008093B100E7CF01969C
:100B50009093B2008093B100B1CF843071F4809152
:100B6000B1009091B200883EF3E09F0718F1109217
:100B7000B2001092B100D092780080917800863057
:100B800071F48091B1009091B2008A3221E0920715
:100B9000B8F01092B2001092B100E092780080910B
:100BA00078008B7F813009F089CF1092B2001092CB
:100BB000B10084CF01969093B2008093B100DDCF55
:100BC00001969093B2008093B100E9CF80E069DE96
:100BD00088CF81E0FCCF809178008093A6000895B3
:100BE000A8D008F481E008950CD0DEC0D6D040F043
:100BF000CDD030F021F45F3F19F0BFC0511108C1D2
:100C0000C2C0E3D098F39923C9F35523B1F3951BE0
:100C1000550BBB27AA2762177307840738F09F5F1D
:100C20005F4F220F331F441FAA1FA9F333D00E2E8C
:100C30003AF0E0E830D091505040E695001CCAF7F9
:100C400029D0FE2F27D0660F771F881FBB1F2617BE
:100C500037074807AB07B0E809F0BB0B802DBF0191
:100C6000FF2793585F4F2AF09E3F510568F085C0DB
:100C7000CFC05F3FECF3983EDCF3869577956795A0
:100C8000B795F7959F5FC9F7880F911D9695879542
:100C900097F90895E1E0660F771F881FBB1F621761
:100CA00073078407BA0720F0621B730B840BBA0B1F
:100CB000EE1F88F7E0950895E89409C097FB3EF48D
:100CC00090958095709561957F4F8F4F9F4F992399
:100CD000A9F0F92F96E9BB279395F6958795779517
:100CE0006795B795F111F8CFFAF4BB0F11F460FFD7
:100CF0001BC06F5F7F4F8F4F9F4F16C0882311F02F
:100D000096E911C0772321F09EE8872F762F05C042
:100D1000662371F096E8862F70E060E02AF09A95DD
:100D2000660F771F881FDAF7880F9695879597F9D2
:100D30000895990F0008550FAA0BE0E8FEEF16166C
:100D40001706E807F907C0F012161306E407F507BF
:100D500098F0621B730B840B950B39F40A2661F033
:100D6000232B242B252B21F408950A2609F4A140D6
:100D7000A6958FEF811D811D089597F99F6780E8E3
:100D800070E060E008959FEF80EC089500240A94DD
:100D90001616170618060906089500240A94121656
:100DA0001306140605060895092E0394000C11F489
:100DB000882352F0BB0F40F4BF2B11F460FF04C036
:100DC0006F5F7F4F8F4F9F4F089557FD9058440F8F
:100DD000551F59F05F3F71F04795880F97FB991F9A
:100DE00061F09F3F79F08795089512161306140657
:100DF000551FF2CF4695F1DF08C0161617061806E4
:100E0000991FF1CF86957105610508940895E894BE
:100E1000BB2766277727CB0197F908958ADF08F467
:100E20008FEF08950AD0C0CFB1DF28F0B6DF18F0F9
:100E3000952309F0A2CFA7CFEBCFC7DFA8F3992363
:100E4000D9F35523C9F3950F50E0551FAA27EE2774
:100E5000FF27BB2700240894679520F4E20FF31FB7
:100E6000B41F0A1E220F331F441FAA1F6695A9F73D
:100E7000779530F4F30FB41F0A1E121E08F4639521
:100E8000330F441FAA1F221F769599F7879520F4E8
:100E9000B40F0A1E121E631F440FAA1F221F331F06
:100EA0008695A9F7862F712D602D11249F575040EC
:100EB0008AF0E1F088234AF0EE0FFF1FBB1F661F88
:100EC000771F881F91505040A9F79E3F510570F041
:100ED00054CF9ECF5F3FECF3983EDCF38695779539
:100EE0006795B795F795E7959F5FC1F7FE2B880F3C
:100EF000911D9695879597F90895AA1BBB1B51E103
:100F000007C0AA1FBB1FA617B70710F0A61BB70B79
:100F1000881F991F5A95A9F780959095BC01CD011E
:100F20000895EE0FFF1F0590F491E02D0994F894B9
:020F3000FFCFF1
:100F3200011F043200FEFF713D5440FEFFAAF19EE4
:100F4200400000803FFEFF04010001020202030391
:100F520004050607080A0B0D1013171B20262D3651
:0A0F6200404C5B6C8098B5D7FF008F
:00000001FF

